{
  "_format": "hh-sol-artifact-1",
  "contractName": "CoolGame",
  "sourceName": "contracts/CoolGame.sol",
  "abi": [
    {
      "inputs": [
        {
          "internalType": "string[]",
          "name": "characterNames",
          "type": "string[]"
        },
        {
          "internalType": "string[]",
          "name": "characterImageURIs",
          "type": "string[]"
        },
        {
          "internalType": "uint256[]",
          "name": "characterHp",
          "type": "uint256[]"
        },
        {
          "internalType": "uint256[]",
          "name": "characterAttackDmg",
          "type": "uint256[]"
        },
        {
          "internalType": "string",
          "name": "bossName",
          "type": "string"
        },
        {
          "internalType": "string",
          "name": "bossImageURI",
          "type": "string"
        },
        {
          "internalType": "uint256",
          "name": "bossHp",
          "type": "uint256"
        },
        {
          "internalType": "uint256",
          "name": "bossAttackDamage",
          "type": "uint256"
        }
      ],
      "stateMutability": "nonpayable",
      "type": "constructor"
    },
    {
      "anonymous": false,
      "inputs": [
        {
          "indexed": true,
          "internalType": "address",
          "name": "owner",
          "type": "address"
        },
        {
          "indexed": true,
          "internalType": "address",
          "name": "approved",
          "type": "address"
        },
        {
          "indexed": true,
          "internalType": "uint256",
          "name": "tokenId",
          "type": "uint256"
        }
      ],
      "name": "Approval",
      "type": "event"
    },
    {
      "anonymous": false,
      "inputs": [
        {
          "indexed": true,
          "internalType": "address",
          "name": "owner",
          "type": "address"
        },
        {
          "indexed": true,
          "internalType": "address",
          "name": "operator",
          "type": "address"
        },
        {
          "indexed": false,
          "internalType": "bool",
          "name": "approved",
          "type": "bool"
        }
      ],
      "name": "ApprovalForAll",
      "type": "event"
    },
    {
      "anonymous": false,
      "inputs": [
        {
          "indexed": false,
          "internalType": "address",
          "name": "sender",
          "type": "address"
        },
        {
          "indexed": false,
          "internalType": "uint256",
          "name": "newBossHp",
          "type": "uint256"
        },
        {
          "indexed": false,
          "internalType": "uint256",
          "name": "newPlayerHp",
          "type": "uint256"
        }
      ],
      "name": "AttackComplete",
      "type": "event"
    },
    {
      "anonymous": false,
      "inputs": [
        {
          "indexed": false,
          "internalType": "address",
          "name": "sender",
          "type": "address"
        },
        {
          "indexed": false,
          "internalType": "uint256",
          "name": "tokenId",
          "type": "uint256"
        },
        {
          "indexed": false,
          "internalType": "uint256",
          "name": "characterIndex",
          "type": "uint256"
        }
      ],
      "name": "CharacterNFTMinted",
      "type": "event"
    },
    {
      "anonymous": false,
      "inputs": [
        {
          "indexed": true,
          "internalType": "address",
          "name": "from",
          "type": "address"
        },
        {
          "indexed": true,
          "internalType": "address",
          "name": "to",
          "type": "address"
        },
        {
          "indexed": true,
          "internalType": "uint256",
          "name": "tokenId",
          "type": "uint256"
        }
      ],
      "name": "Transfer",
      "type": "event"
    },
    {
      "inputs": [
        {
          "internalType": "address",
          "name": "to",
          "type": "address"
        },
        {
          "internalType": "uint256",
          "name": "tokenId",
          "type": "uint256"
        }
      ],
      "name": "approve",
      "outputs": [],
      "stateMutability": "nonpayable",
      "type": "function"
    },
    {
      "inputs": [],
      "name": "attackBoss",
      "outputs": [],
      "stateMutability": "nonpayable",
      "type": "function"
    },
    {
      "inputs": [
        {
          "internalType": "address",
          "name": "owner",
          "type": "address"
        }
      ],
      "name": "balanceOf",
      "outputs": [
        {
          "internalType": "uint256",
          "name": "",
          "type": "uint256"
        }
      ],
      "stateMutability": "view",
      "type": "function"
    },
    {
      "inputs": [],
      "name": "boss",
      "outputs": [
        {
          "internalType": "string",
          "name": "name",
          "type": "string"
        },
        {
          "internalType": "string",
          "name": "imageURI",
          "type": "string"
        },
        {
          "internalType": "uint256",
          "name": "hp",
          "type": "uint256"
        },
        {
          "internalType": "uint256",
          "name": "maxHp",
          "type": "uint256"
        },
        {
          "internalType": "uint256",
          "name": "attackDamage",
          "type": "uint256"
        }
      ],
      "stateMutability": "view",
      "type": "function"
    },
    {
      "inputs": [],
      "name": "checkIfUserHasNFT",
      "outputs": [
        {
          "components": [
            {
              "internalType": "uint256",
              "name": "characterIndex",
              "type": "uint256"
            },
            {
              "internalType": "string",
              "name": "name",
              "type": "string"
            },
            {
              "internalType": "string",
              "name": "imageURI",
              "type": "string"
            },
            {
              "internalType": "uint256",
              "name": "hp",
              "type": "uint256"
            },
            {
              "internalType": "uint256",
              "name": "maxHp",
              "type": "uint256"
            },
            {
              "internalType": "uint256",
              "name": "attackDamage",
              "type": "uint256"
            }
          ],
          "internalType": "struct CoolGame.CharacterAttributes",
          "name": "",
          "type": "tuple"
        }
      ],
      "stateMutability": "view",
      "type": "function"
    },
    {
      "inputs": [],
      "name": "getAllDefaultCharacters",
      "outputs": [
        {
          "components": [
            {
              "internalType": "uint256",
              "name": "characterIndex",
              "type": "uint256"
            },
            {
              "internalType": "string",
              "name": "name",
              "type": "string"
            },
            {
              "internalType": "string",
              "name": "imageURI",
              "type": "string"
            },
            {
              "internalType": "uint256",
              "name": "hp",
              "type": "uint256"
            },
            {
              "internalType": "uint256",
              "name": "maxHp",
              "type": "uint256"
            },
            {
              "internalType": "uint256",
              "name": "attackDamage",
              "type": "uint256"
            }
          ],
          "internalType": "struct CoolGame.CharacterAttributes[]",
          "name": "",
          "type": "tuple[]"
        }
      ],
      "stateMutability": "view",
      "type": "function"
    },
    {
      "inputs": [
        {
          "internalType": "uint256",
          "name": "tokenId",
          "type": "uint256"
        }
      ],
      "name": "getApproved",
      "outputs": [
        {
          "internalType": "address",
          "name": "",
          "type": "address"
        }
      ],
      "stateMutability": "view",
      "type": "function"
    },
    {
      "inputs": [],
      "name": "getBoss",
      "outputs": [
        {
          "components": [
            {
              "internalType": "string",
              "name": "name",
              "type": "string"
            },
            {
              "internalType": "string",
              "name": "imageURI",
              "type": "string"
            },
            {
              "internalType": "uint256",
              "name": "hp",
              "type": "uint256"
            },
            {
              "internalType": "uint256",
              "name": "maxHp",
              "type": "uint256"
            },
            {
              "internalType": "uint256",
              "name": "attackDamage",
              "type": "uint256"
            }
          ],
          "internalType": "struct CoolGame.Boss",
          "name": "",
          "type": "tuple"
        }
      ],
      "stateMutability": "view",
      "type": "function"
    },
    {
      "inputs": [
        {
          "internalType": "address",
          "name": "owner",
          "type": "address"
        },
        {
          "internalType": "address",
          "name": "operator",
          "type": "address"
        }
      ],
      "name": "isApprovedForAll",
      "outputs": [
        {
          "internalType": "bool",
          "name": "",
          "type": "bool"
        }
      ],
      "stateMutability": "view",
      "type": "function"
    },
    {
      "inputs": [
        {
          "internalType": "uint256",
          "name": "_characterIndex",
          "type": "uint256"
        }
      ],
      "name": "mintCharacterNFT",
      "outputs": [],
      "stateMutability": "nonpayable",
      "type": "function"
    },
    {
      "inputs": [],
      "name": "name",
      "outputs": [
        {
          "internalType": "string",
          "name": "",
          "type": "string"
        }
      ],
      "stateMutability": "view",
      "type": "function"
    },
    {
      "inputs": [
        {
          "internalType": "uint256",
          "name": "",
          "type": "uint256"
        }
      ],
      "name": "nftHolderAttributes",
      "outputs": [
        {
          "internalType": "uint256",
          "name": "characterIndex",
          "type": "uint256"
        },
        {
          "internalType": "string",
          "name": "name",
          "type": "string"
        },
        {
          "internalType": "string",
          "name": "imageURI",
          "type": "string"
        },
        {
          "internalType": "uint256",
          "name": "hp",
          "type": "uint256"
        },
        {
          "internalType": "uint256",
          "name": "maxHp",
          "type": "uint256"
        },
        {
          "internalType": "uint256",
          "name": "attackDamage",
          "type": "uint256"
        }
      ],
      "stateMutability": "view",
      "type": "function"
    },
    {
      "inputs": [
        {
          "internalType": "address",
          "name": "",
          "type": "address"
        }
      ],
      "name": "nftHolders",
      "outputs": [
        {
          "internalType": "uint256",
          "name": "",
          "type": "uint256"
        }
      ],
      "stateMutability": "view",
      "type": "function"
    },
    {
      "inputs": [
        {
          "internalType": "uint256",
          "name": "tokenId",
          "type": "uint256"
        }
      ],
      "name": "ownerOf",
      "outputs": [
        {
          "internalType": "address",
          "name": "",
          "type": "address"
        }
      ],
      "stateMutability": "view",
      "type": "function"
    },
    {
      "inputs": [
        {
          "internalType": "address",
          "name": "from",
          "type": "address"
        },
        {
          "internalType": "address",
          "name": "to",
          "type": "address"
        },
        {
          "internalType": "uint256",
          "name": "tokenId",
          "type": "uint256"
        }
      ],
      "name": "safeTransferFrom",
      "outputs": [],
      "stateMutability": "nonpayable",
      "type": "function"
    },
    {
      "inputs": [
        {
          "internalType": "address",
          "name": "from",
          "type": "address"
        },
        {
          "internalType": "address",
          "name": "to",
          "type": "address"
        },
        {
          "internalType": "uint256",
          "name": "tokenId",
          "type": "uint256"
        },
        {
          "internalType": "bytes",
          "name": "_data",
          "type": "bytes"
        }
      ],
      "name": "safeTransferFrom",
      "outputs": [],
      "stateMutability": "nonpayable",
      "type": "function"
    },
    {
      "inputs": [
        {
          "internalType": "address",
          "name": "operator",
          "type": "address"
        },
        {
          "internalType": "bool",
          "name": "approved",
          "type": "bool"
        }
      ],
      "name": "setApprovalForAll",
      "outputs": [],
      "stateMutability": "nonpayable",
      "type": "function"
    },
    {
      "inputs": [
        {
          "internalType": "bytes4",
          "name": "interfaceId",
          "type": "bytes4"
        }
      ],
      "name": "supportsInterface",
      "outputs": [
        {
          "internalType": "bool",
          "name": "",
          "type": "bool"
        }
      ],
      "stateMutability": "view",
      "type": "function"
    },
    {
      "inputs": [],
      "name": "symbol",
      "outputs": [
        {
          "internalType": "string",
          "name": "",
          "type": "string"
        }
      ],
      "stateMutability": "view",
      "type": "function"
    },
    {
      "inputs": [
        {
          "internalType": "uint256",
          "name": "_tokenId",
          "type": "uint256"
        }
      ],
      "name": "tokenURI",
      "outputs": [
        {
          "internalType": "string",
          "name": "",
          "type": "string"
        }
      ],
      "stateMutability": "view",
      "type": "function"
    },
    {
      "inputs": [
        {
          "internalType": "address",
          "name": "from",
          "type": "address"
        },
        {
          "internalType": "address",
          "name": "to",
          "type": "address"
        },
        {
          "internalType": "uint256",
          "name": "tokenId",
          "type": "uint256"
        }
      ],
      "name": "transferFrom",
      "outputs": [],
      "stateMutability": "nonpayable",
      "type": "function"
    }
  ],
  "bytecode": "0x60806040523480156200001157600080fd5b50604051620056df380380620056df833981810160405281019062000037919062000a5a565b6040518060400160405280600e81526020017f57656233436861726163746572730000000000000000000000000000000000008152506040518060400160405280600581526020017f57454233430000000000000000000000000000000000000000000000000000008152508160009080519060200190620000bb929190620007ed565b508060019080519060200190620000d4929190620007ed565b5050506040518060a0016040528085815260200184815260200183815260200183815260200182815250600660008201518160000190805190602001906200011e929190620007ed565b5060208201518160010190805190602001906200013d929190620007ed565b50604082015181600201556060820151816003015560808201518160040155905050620002c06040518060600160405280602a8152602001620056b5602a9139600660000180546200018f9062000ddd565b80601f0160208091040260200160405190810160405280929190818152602001828054620001bd9062000ddd565b80156200020e5780601f10620001e2576101008083540402835291602001916200020e565b820191906000526020600020905b815481529060010190602001808311620001f057829003601f168201915b5050505050600660020154600660010180546200022b9062000ddd565b80601f0160208091040260200160405190810160405280929190818152602001828054620002599062000ddd565b8015620002aa5780601f106200027e57610100808354040283529160200191620002aa565b820191906000526020600020905b8154815290600101906020018083116200028c57829003601f168201915b50505050506200070260201b62001b8f1760201c565b60005b8851811015620006dc57600c6040518060c001604052808381526020018b84815181106200031a577f4e487b7100000000000000000000000000000000000000000000000000000000600052603260045260246000fd5b602002602001015181526020018a848151811062000361577f4e487b7100000000000000000000000000000000000000000000000000000000600052603260045260246000fd5b60200260200101518152602001898481518110620003a8577f4e487b7100000000000000000000000000000000000000000000000000000000600052603260045260246000fd5b60200260200101518152602001898481518110620003ef577f4e487b7100000000000000000000000000000000000000000000000000000000600052603260045260246000fd5b6020026020010151815260200188848151811062000436577f4e487b7100000000000000000000000000000000000000000000000000000000600052603260045260246000fd5b6020026020010151815250908060018154018082558091505060019003906000526020600020906006020160009091909190915060008201518160000155602082015181600101908051906020019062000492929190620007ed565b506040820151816002019080519060200190620004b1929190620007ed565b50606082015181600301556080820151816004015560a0820151816005015550506000600c82815481106200050f577f4e487b7100000000000000000000000000000000000000000000000000000000600052603260045260246000fd5b90600052602060002090600602016040518060c001604052908160008201548152602001600182018054620005449062000ddd565b80601f0160208091040260200160405190810160405280929190818152602001828054620005729062000ddd565b8015620005c35780601f106200059757610100808354040283529160200191620005c3565b820191906000526020600020905b815481529060010190602001808311620005a557829003601f168201915b50505050508152602001600282018054620005de9062000ddd565b80601f01602080910402602001604051908101604052809291908181526020018280546200060c9062000ddd565b80156200065d5780601f1062000631576101008083540402835291602001916200065d565b820191906000526020600020905b8154815290600101906020018083116200063f57829003601f168201915b5050505050815260200160038201548152602001600482015481526020016005820154815250509050620006c460405180606001604052806025815260200162005690602591398260200151836060015184604001516200070260201b62001b8f1760201c565b50600181620006d4919062000d40565b9050620002c3565b50620006f4600b620007ae60201b62001c311760201c565b505050505050505062000f01565b620007a8848484846040516024016200071f949392919062000c05565b6040516020818303038152906040527f8d142cdd000000000000000000000000000000000000000000000000000000007bffffffffffffffffffffffffffffffffffffffffffffffffffffffff19166020820180517bffffffffffffffffffffffffffffffffffffffffffffffffffffffff8381831617835250505050620007c460201b60201c565b50505050565b6001816000016000828254019250508190555050565b60008151905060006a636f6e736f6c652e6c6f679050602083016000808483855afa5050505050565b828054620007fb9062000ddd565b90600052602060002090601f0160209004810192826200081f57600085556200086b565b82601f106200083a57805160ff19168380011785556200086b565b828001600101855582156200086b579182015b828111156200086a5782518255916020019190600101906200084d565b5b5090506200087a91906200087e565b5090565b5b80821115620008995760008160009055506001016200087f565b5090565b6000620008b4620008ae8462000c90565b62000c67565b9050808382526020820190508260005b85811015620008f85781518501620008dd888262000a16565b845260208401935060208301925050600181019050620008c4565b5050509392505050565b600062000919620009138462000cbf565b62000c67565b905080838252602082019050828560208602820111156200093957600080fd5b60005b858110156200096d578162000952888262000a43565b8452602084019350602083019250506001810190506200093c565b5050509392505050565b60006200098e620009888462000cee565b62000c67565b905082815260208101848484011115620009a757600080fd5b620009b484828562000da7565b509392505050565b600082601f830112620009ce57600080fd5b8151620009e08482602086016200089d565b91505092915050565b600082601f830112620009fb57600080fd5b815162000a0d84826020860162000902565b91505092915050565b600082601f83011262000a2857600080fd5b815162000a3a84826020860162000977565b91505092915050565b60008151905062000a548162000ee7565b92915050565b600080600080600080600080610100898b03121562000a7857600080fd5b600089015167ffffffffffffffff81111562000a9357600080fd5b62000aa18b828c01620009bc565b985050602089015167ffffffffffffffff81111562000abf57600080fd5b62000acd8b828c01620009bc565b975050604089015167ffffffffffffffff81111562000aeb57600080fd5b62000af98b828c01620009e9565b965050606089015167ffffffffffffffff81111562000b1757600080fd5b62000b258b828c01620009e9565b955050608089015167ffffffffffffffff81111562000b4357600080fd5b62000b518b828c0162000a16565b94505060a089015167ffffffffffffffff81111562000b6f57600080fd5b62000b7d8b828c0162000a16565b93505060c062000b908b828c0162000a43565b92505060e062000ba38b828c0162000a43565b9150509295985092959890939650565b600062000bc08262000d24565b62000bcc818562000d2f565b935062000bde81856020860162000da7565b62000be98162000ed6565b840191505092915050565b62000bff8162000d9d565b82525050565b6000608082019050818103600083015262000c21818762000bb3565b9050818103602083015262000c37818662000bb3565b905062000c48604083018562000bf4565b818103606083015262000c5c818462000bb3565b905095945050505050565b600062000c7362000c86565b905062000c81828262000e13565b919050565b6000604051905090565b600067ffffffffffffffff82111562000cae5762000cad62000ea7565b5b602082029050602081019050919050565b600067ffffffffffffffff82111562000cdd5762000cdc62000ea7565b5b602082029050602081019050919050565b600067ffffffffffffffff82111562000d0c5762000d0b62000ea7565b5b62000d178262000ed6565b9050602081019050919050565b600081519050919050565b600082825260208201905092915050565b600062000d4d8262000d9d565b915062000d5a8362000d9d565b9250827fffffffffffffffffffffffffffffffffffffffffffffffffffffffffffffffff0382111562000d925762000d9162000e49565b5b828201905092915050565b6000819050919050565b60005b8381101562000dc757808201518184015260208101905062000daa565b8381111562000dd7576000848401525b50505050565b6000600282049050600182168062000df657607f821691505b6020821081141562000e0d5762000e0c62000e78565b5b50919050565b62000e1e8262000ed6565b810181811067ffffffffffffffff8211171562000e405762000e3f62000ea7565b5b80604052505050565b7f4e487b7100000000000000000000000000000000000000000000000000000000600052601160045260246000fd5b7f4e487b7100000000000000000000000000000000000000000000000000000000600052602260045260246000fd5b7f4e487b7100000000000000000000000000000000000000000000000000000000600052604160045260246000fd5b6000601f19601f8301169050919050565b62000ef28162000d9d565b811462000efe57600080fd5b50565b61477f8062000f116000396000f3fe608060405234801561001057600080fd5b50600436106101375760003560e01c806398da4c95116100b8578063c772af391161007c578063c772af3914610365578063c87b56dd14610387578063c8cf27f4146103b7578063d4f24c5b146103d5578063e985e9c5146103df578063f8b81ef71461040f57610137565b806398da4c95146102bc578063a22cb465146102f1578063b88d4fde1461030d578063b953084e14610329578063c76d9e7d1461034757610137565b806342842e0e116100ff57806342842e0e146101f25780636352211e1461020e57806370a082311461023e5780637df124a11461026e57806395d89b411461029e57610137565b806301ffc9a71461013c57806306fdde031461016c578063081812fc1461018a578063095ea7b3146101ba57806323b872dd146101d6575b600080fd5b61015660048036038101906101519190612f66565b61042b565b60405161016391906137cb565b60405180910390f35b61017461050d565b60405161018191906137e6565b60405180910390f35b6101a4600480360381019061019f9190612fb8565b61059f565b6040516101b1919061370b565b60405180910390f35b6101d460048036038101906101cf9190612f2a565b610624565b005b6101f060048036038101906101eb9190612e24565b61073c565b005b61020c60048036038101906102079190612e24565b61079c565b005b61022860048036038101906102239190612fb8565b6107bc565b604051610235919061370b565b60405180910390f35b61025860048036038101906102539190612dbf565b61086e565b6040516102659190613b78565b60405180910390f35b61028860048036038101906102839190612dbf565b610926565b6040516102959190613b78565b60405180910390f35b6102a661093e565b6040516102b391906137e6565b60405180910390f35b6102d660048036038101906102d19190612fb8565b6109d0565b6040516102e896959493929190613b93565b60405180910390f35b61030b60048036038101906103069190612eee565b610b1c565b005b61032760048036038101906103229190612e73565b610b32565b005b610331610b94565b60405161033e91906137a9565b60405180910390f35b61034f610d3f565b60405161035c9190613b34565b60405180910390f35b61036d610e9b565b60405161037e9594939291906138b5565b60405180910390f35b6103a1600480360381019061039c9190612fb8565b610fcf565b6040516103ae91906137e6565b60405180910390f35b6103bf6111ea565b6040516103cc9190613b56565b60405180910390f35b6103dd6113c2565b005b6103f960048036038101906103f49190612de8565b611707565b60405161040691906137cb565b60405180910390f35b61042960048036038101906104249190612fb8565b61179b565b005b60007f80ac58cd000000000000000000000000000000000000000000000000000000007bffffffffffffffffffffffffffffffffffffffffffffffffffffffff1916827bffffffffffffffffffffffffffffffffffffffffffffffffffffffff191614806104f657507f5b5e139f000000000000000000000000000000000000000000000000000000007bffffffffffffffffffffffffffffffffffffffffffffffffffffffff1916827bffffffffffffffffffffffffffffffffffffffffffffffffffffffff1916145b80610506575061050582611c47565b5b9050919050565b60606000805461051c90613eb0565b80601f016020809104026020016040519081016040528092919081815260200182805461054890613eb0565b80156105955780601f1061056a57610100808354040283529160200191610595565b820191906000526020600020905b81548152906001019060200180831161057857829003601f168201915b5050505050905090565b60006105aa82611cb1565b6105e9576040517f08c379a00000000000000000000000000000000000000000000000000000000081526004016105e090613a94565b60405180910390fd5b6004600083815260200190815260200160002060009054906101000a900473ffffffffffffffffffffffffffffffffffffffff169050919050565b600061062f826107bc565b90508073ffffffffffffffffffffffffffffffffffffffff168373ffffffffffffffffffffffffffffffffffffffff1614156106a0576040517f08c379a000000000000000000000000000000000000000000000000000000000815260040161069790613ab4565b60405180910390fd5b8073ffffffffffffffffffffffffffffffffffffffff166106bf611d1d565b73ffffffffffffffffffffffffffffffffffffffff1614806106ee57506106ed816106e8611d1d565b611707565b5b61072d576040517f08c379a000000000000000000000000000000000000000000000000000000000815260040161072490613a14565b60405180910390fd5b6107378383611d25565b505050565b61074d610747611d1d565b82611dde565b61078c576040517f08c379a000000000000000000000000000000000000000000000000000000000815260040161078390613af4565b60405180910390fd5b610797838383611ebc565b505050565b6107b783838360405180602001604052806000815250610b32565b505050565b6000806002600084815260200190815260200160002060009054906101000a900473ffffffffffffffffffffffffffffffffffffffff169050600073ffffffffffffffffffffffffffffffffffffffff168173ffffffffffffffffffffffffffffffffffffffff161415610865576040517f08c379a000000000000000000000000000000000000000000000000000000000815260040161085c90613a54565b60405180910390fd5b80915050919050565b60008073ffffffffffffffffffffffffffffffffffffffff168273ffffffffffffffffffffffffffffffffffffffff1614156108df576040517f08c379a00000000000000000000000000000000000000000000000000000000081526004016108d690613a34565b60405180910390fd5b600360008373ffffffffffffffffffffffffffffffffffffffff1673ffffffffffffffffffffffffffffffffffffffff168152602001908152602001600020549050919050565b600e6020528060005260406000206000915090505481565b60606001805461094d90613eb0565b80601f016020809104026020016040519081016040528092919081815260200182805461097990613eb0565b80156109c65780601f1061099b576101008083540402835291602001916109c6565b820191906000526020600020905b8154815290600101906020018083116109a957829003601f168201915b5050505050905090565b600d6020528060005260406000206000915090508060000154908060010180546109f990613eb0565b80601f0160208091040260200160405190810160405280929190818152602001828054610a2590613eb0565b8015610a725780601f10610a4757610100808354040283529160200191610a72565b820191906000526020600020905b815481529060010190602001808311610a5557829003601f168201915b505050505090806002018054610a8790613eb0565b80601f0160208091040260200160405190810160405280929190818152602001828054610ab390613eb0565b8015610b005780601f10610ad557610100808354040283529160200191610b00565b820191906000526020600020905b815481529060010190602001808311610ae357829003601f168201915b5050505050908060030154908060040154908060050154905086565b610b2e610b27611d1d565b8383612123565b5050565b610b43610b3d611d1d565b83611dde565b610b82576040517f08c379a0000000000000000000000000000000000000000000000000000000008152600401610b7990613af4565b60405180910390fd5b610b8e84848484612290565b50505050565b6060600c805480602002602001604051908101604052809291908181526020016000905b82821015610d3657838290600052602060002090600602016040518060c001604052908160008201548152602001600182018054610bf590613eb0565b80601f0160208091040260200160405190810160405280929190818152602001828054610c2190613eb0565b8015610c6e5780601f10610c4357610100808354040283529160200191610c6e565b820191906000526020600020905b815481529060010190602001808311610c5157829003601f168201915b50505050508152602001600282018054610c8790613eb0565b80601f0160208091040260200160405190810160405280929190818152602001828054610cb390613eb0565b8015610d005780601f10610cd557610100808354040283529160200191610d00565b820191906000526020600020905b815481529060010190602001808311610ce357829003601f168201915b50505050508152602001600382015481526020016004820154815260200160058201548152505081526020019060010190610bb8565b50505050905090565b610d47612be6565b60066040518060a0016040529081600082018054610d6490613eb0565b80601f0160208091040260200160405190810160405280929190818152602001828054610d9090613eb0565b8015610ddd5780601f10610db257610100808354040283529160200191610ddd565b820191906000526020600020905b815481529060010190602001808311610dc057829003601f168201915b50505050508152602001600182018054610df690613eb0565b80601f0160208091040260200160405190810160405280929190818152602001828054610e2290613eb0565b8015610e6f5780601f10610e4457610100808354040283529160200191610e6f565b820191906000526020600020905b815481529060010190602001808311610e5257829003601f168201915b505050505081526020016002820154815260200160038201548152602001600482015481525050905090565b6006806000018054610eac90613eb0565b80601f0160208091040260200160405190810160405280929190818152602001828054610ed890613eb0565b8015610f255780601f10610efa57610100808354040283529160200191610f25565b820191906000526020600020905b815481529060010190602001808311610f0857829003601f168201915b505050505090806001018054610f3a90613eb0565b80601f0160208091040260200160405190810160405280929190818152602001828054610f6690613eb0565b8015610fb35780601f10610f8857610100808354040283529160200191610fb3565b820191906000526020600020905b815481529060010190602001808311610f9657829003601f168201915b5050505050908060020154908060030154908060040154905085565b60606000600d60008481526020019081526020016000206040518060c00160405290816000820154815260200160018201805461100b90613eb0565b80601f016020809104026020016040519081016040528092919081815260200182805461103790613eb0565b80156110845780601f1061105957610100808354040283529160200191611084565b820191906000526020600020905b81548152906001019060200180831161106757829003601f168201915b5050505050815260200160028201805461109d90613eb0565b80601f01602080910402602001604051908101604052809291908181526020018280546110c990613eb0565b80156111165780601f106110eb57610100808354040283529160200191611116565b820191906000526020600020905b8154815290600101906020018083116110f957829003601f168201915b5050505050815260200160038201548152602001600482015481526020016005820154815250509050600061114e82606001516122ec565b9050600061115f83608001516122ec565b905060006111708460a001516122ec565b905060006111b68560200151611185896122ec565b87604001518787876040516020016111a296959493929190613644565b604051602081830303815290604052612499565b90506000816040516020016111cb91906136e9565b6040516020818303038152906040529050809650505050505050919050565b6111f2612c15565b6000600e60003373ffffffffffffffffffffffffffffffffffffffff1673ffffffffffffffffffffffffffffffffffffffff16815260200190815260200160002054905060008111156113b157600d60008281526020019081526020016000206040518060c00160405290816000820154815260200160018201805461127790613eb0565b80601f01602080910402602001604051908101604052809291908181526020018280546112a390613eb0565b80156112f05780601f106112c5576101008083540402835291602001916112f0565b820191906000526020600020905b8154815290600101906020018083116112d357829003601f168201915b5050505050815260200160028201805461130990613eb0565b80601f016020809104026020016040519081016040528092919081815260200182805461133590613eb0565b80156113825780601f1061135757610100808354040283529160200191611382565b820191906000526020600020905b81548152906001019060200180831161136557829003601f168201915b5050505050815260200160038201548152602001600482015481526020016005820154815250509150506113bf565b6113b9612c15565b80925050505b90565b6000600e60003373ffffffffffffffffffffffffffffffffffffffff1673ffffffffffffffffffffffffffffffffffffffff1681526020019081526020016000205490506000600d600083815260200190815260200160002090506114d56040518060600160405280603c815260200161470e603c913982600101805461144890613eb0565b80601f016020809104026020016040519081016040528092919081815260200182805461147490613eb0565b80156114c15780601f10611496576101008083540402835291602001916114c1565b820191906000526020600020905b8154815290600101906020018083116114a457829003601f168201915b505050505083600301548460050154612657565b6115ad6040518060400160405280601b81526020017f426f73732025732068617320257320485020616e6420257320414400000000008152506006600001805461151e90613eb0565b80601f016020809104026020016040519081016040528092919081815260200182805461154a90613eb0565b80156115975780601f1061156c57610100808354040283529160200191611597565b820191906000526020600020905b81548152906001019060200180831161157a57829003601f168201915b5050505050600660020154600660040154612657565b60008160030154116115f4576040517f08c379a00000000000000000000000000000000000000000000000000000000081526004016115eb90613b14565b60405180910390fd5b60006006600201541161163c576040517f08c379a000000000000000000000000000000000000000000000000000000000815260040161163390613ad4565b60405180910390fd5b8060050154600660020154101561165d57600060066002018190555061167e565b8060050154600660020160008282546116769190613dc6565b925050819055505b6006600401548160030154101561169e57600081600301819055506116bf565b6006600401548160030160008282546116b79190613dc6565b925050819055505b7f32bd565ee3f2cb5ddd742bbecd6048d3e9abe90b3827a40c2b72d232e71e3c9d3360066002015483600301546040516116fb93929190613772565b60405180910390a15050565b6000600560008473ffffffffffffffffffffffffffffffffffffffff1673ffffffffffffffffffffffffffffffffffffffff16815260200190815260200160002060008373ffffffffffffffffffffffffffffffffffffffff1673ffffffffffffffffffffffffffffffffffffffff16815260200190815260200160002060009054906101000a900460ff16905092915050565b60006117a7600b6126f9565b90506117b33382612707565b6040518060c00160405280838152602001600c84815481106117fe577f4e487b7100000000000000000000000000000000000000000000000000000000600052603260045260246000fd5b9060005260206000209060060201600101805461181a90613eb0565b80601f016020809104026020016040519081016040528092919081815260200182805461184690613eb0565b80156118935780601f1061186857610100808354040283529160200191611893565b820191906000526020600020905b81548152906001019060200180831161187657829003601f168201915b50505050508152602001600c84815481106118d7577f4e487b7100000000000000000000000000000000000000000000000000000000600052603260045260246000fd5b906000526020600020906006020160020180546118f390613eb0565b80601f016020809104026020016040519081016040528092919081815260200182805461191f90613eb0565b801561196c5780601f106119415761010080835404028352916020019161196c565b820191906000526020600020905b81548152906001019060200180831161194f57829003601f168201915b50505050508152602001600c84815481106119b0577f4e487b7100000000000000000000000000000000000000000000000000000000600052603260045260246000fd5b9060005260206000209060060201600301548152602001600c8481548110611a01577f4e487b7100000000000000000000000000000000000000000000000000000000600052603260045260246000fd5b9060005260206000209060060201600401548152602001600c8481548110611a52577f4e487b7100000000000000000000000000000000000000000000000000000000600052603260045260246000fd5b906000526020600020906006020160050154815250600d6000838152602001908152602001600020600082015181600001556020820151816001019080519060200190611aa0929190612c4b565b506040820151816002019080519060200190611abd929190612c4b565b50606082015181600301556080820151816004015560a08201518160050155905050611b026040518060600160405280602e81526020016146e0602e91398284612725565b80600e60003373ffffffffffffffffffffffffffffffffffffffff1673ffffffffffffffffffffffffffffffffffffffff16815260200190815260200160002081905550611b50600b611c31565b7f4bc303fd457a97b4691b9af582ce71868a3d258638c8d4f8c60988a0f0bfb8cd338284604051611b8393929190613772565b60405180910390a15050565b611c2b84848484604051602401611ba99493929190613808565b6040516020818303038152906040527f8d142cdd000000000000000000000000000000000000000000000000000000007bffffffffffffffffffffffffffffffffffffffffffffffffffffffff19166020820180517bffffffffffffffffffffffffffffffffffffffffffffffffffffffff83818316178352505050506127c4565b50505050565b6001816000016000828254019250508190555050565b60007f01ffc9a7000000000000000000000000000000000000000000000000000000007bffffffffffffffffffffffffffffffffffffffffffffffffffffffff1916827bffffffffffffffffffffffffffffffffffffffffffffffffffffffff1916149050919050565b60008073ffffffffffffffffffffffffffffffffffffffff166002600084815260200190815260200160002060009054906101000a900473ffffffffffffffffffffffffffffffffffffffff1673ffffffffffffffffffffffffffffffffffffffff1614159050919050565b600033905090565b816004600083815260200190815260200160002060006101000a81548173ffffffffffffffffffffffffffffffffffffffff021916908373ffffffffffffffffffffffffffffffffffffffff160217905550808273ffffffffffffffffffffffffffffffffffffffff16611d98836107bc565b73ffffffffffffffffffffffffffffffffffffffff167f8c5be1e5ebec7d5bd14f71427d1e84f3dd0314c0f7b2291e5b200ac8c7c3b92560405160405180910390a45050565b6000611de982611cb1565b611e28576040517f08c379a0000000000000000000000000000000000000000000000000000000008152600401611e1f906139f4565b60405180910390fd5b6000611e33836107bc565b90508073ffffffffffffffffffffffffffffffffffffffff168473ffffffffffffffffffffffffffffffffffffffff161480611e755750611e748185611707565b5b80611eb357508373ffffffffffffffffffffffffffffffffffffffff16611e9b8461059f565b73ffffffffffffffffffffffffffffffffffffffff16145b91505092915050565b8273ffffffffffffffffffffffffffffffffffffffff16611edc826107bc565b73ffffffffffffffffffffffffffffffffffffffff1614611f32576040517f08c379a0000000000000000000000000000000000000000000000000000000008152600401611f2990613974565b60405180910390fd5b600073ffffffffffffffffffffffffffffffffffffffff168273ffffffffffffffffffffffffffffffffffffffff161415611fa2576040517f08c379a0000000000000000000000000000000000000000000000000000000008152600401611f99906139b4565b60405180910390fd5b611fad8383836127ed565b611fb8600082611d25565b6001600360008573ffffffffffffffffffffffffffffffffffffffff1673ffffffffffffffffffffffffffffffffffffffff16815260200190815260200160002060008282546120089190613dc6565b925050819055506001600360008473ffffffffffffffffffffffffffffffffffffffff1673ffffffffffffffffffffffffffffffffffffffff168152602001908152602001600020600082825461205f9190613ce5565b92505081905550816002600083815260200190815260200160002060006101000a81548173ffffffffffffffffffffffffffffffffffffffff021916908373ffffffffffffffffffffffffffffffffffffffff160217905550808273ffffffffffffffffffffffffffffffffffffffff168473ffffffffffffffffffffffffffffffffffffffff167fddf252ad1be2c89b69c2b068fc378daa952ba7f163c4a11628f55a4df523b3ef60405160405180910390a461211e8383836127f2565b505050565b8173ffffffffffffffffffffffffffffffffffffffff168373ffffffffffffffffffffffffffffffffffffffff161415612192576040517f08c379a0000000000000000000000000000000000000000000000000000000008152600401612189906139d4565b60405180910390fd5b80600560008573ffffffffffffffffffffffffffffffffffffffff1673ffffffffffffffffffffffffffffffffffffffff16815260200190815260200160002060008473ffffffffffffffffffffffffffffffffffffffff1673ffffffffffffffffffffffffffffffffffffffff16815260200190815260200160002060006101000a81548160ff0219169083151502179055508173ffffffffffffffffffffffffffffffffffffffff168373ffffffffffffffffffffffffffffffffffffffff167f17307eab39ab6107e8899845ad3d59bd9653f200f220920489ca2b5937696c318360405161228391906137cb565b60405180910390a3505050565b61229b848484611ebc565b6122a7848484846127f7565b6122e6576040517f08c379a00000000000000000000000000000000000000000000000000000000081526004016122dd90613954565b60405180910390fd5b50505050565b60606000821415612334576040518060400160405280600181526020017f30000000000000000000000000000000000000000000000000000000000000008152509050612494565b600082905060005b6000821461236657808061234f90613f13565b915050600a8261235f9190613d3b565b915061233c565b60008167ffffffffffffffff8111156123a8577f4e487b7100000000000000000000000000000000000000000000000000000000600052604160045260246000fd5b6040519080825280601f01601f1916602001820160405280156123da5781602001600182028036833780820191505090505b5090505b6000851461248d576001826123f39190613dc6565b9150600a856124029190613f5c565b603061240e9190613ce5565b60f81b81838151811061244a577f4e487b7100000000000000000000000000000000000000000000000000000000600052603260045260246000fd5b60200101907effffffffffffffffffffffffffffffffffffffffffffffffffffffffffffff1916908160001a905350600a856124869190613d3b565b94506123de565b8093505050505b919050565b606060008251905060008114156124c25760405180602001604052806000815250915050612652565b600060036002836124d39190613ce5565b6124dd9190613d3b565b60046124e99190613d6c565b905060006020826124fa9190613ce5565b67ffffffffffffffff811115612539577f4e487b7100000000000000000000000000000000000000000000000000000000600052604160045260246000fd5b6040519080825280601f01601f19166020018201604052801561256b5781602001600182028036833780820191505090505b50905060006040518060600160405280604081526020016146a0604091399050600181016020830160005b8681101561260f5760038101905062ffffff818a015116603f8160121c168401518060081b905060ff603f83600c1c1686015116810190508060081b905060ff603f8360061c1686015116810190508060081b905060ff603f831686015116810190508060e01b90508084526004840193505050612596565b506003860660018114612629576002811461263957612644565b613d3d60f01b6002830352612644565b603d60f81b60018303525b508484525050819450505050505b919050565b6126f3848484846040516024016126719493929190613862565b6040516020818303038152906040527fd5cf17d0000000000000000000000000000000000000000000000000000000007bffffffffffffffffffffffffffffffffffffffffffffffffffffffff19166020820180517bffffffffffffffffffffffffffffffffffffffffffffffffffffffff83818316178352505050506127c4565b50505050565b600081600001549050919050565b61272182826040518060200160405280600081525061298e565b5050565b6127bf83838360405160240161273d93929190613916565b6040516020818303038152906040527f969cdd03000000000000000000000000000000000000000000000000000000007bffffffffffffffffffffffffffffffffffffffffffffffffffffffff19166020820180517bffffffffffffffffffffffffffffffffffffffffffffffffffffffff83818316178352505050506127c4565b505050565b60008151905060006a636f6e736f6c652e6c6f679050602083016000808483855afa5050505050565b505050565b505050565b60006128188473ffffffffffffffffffffffffffffffffffffffff166129e9565b15612981578373ffffffffffffffffffffffffffffffffffffffff1663150b7a02612841611d1d565b8786866040518563ffffffff1660e01b81526004016128639493929190613726565b602060405180830381600087803b15801561287d57600080fd5b505af19250505080156128ae57506040513d601f19601f820116820180604052508101906128ab9190612f8f565b60015b612931573d80600081146128de576040519150601f19603f3d011682016040523d82523d6000602084013e6128e3565b606091505b50600081511415612929576040517f08c379a000000000000000000000000000000000000000000000000000000000815260040161292090613954565b60405180910390fd5b805181602001fd5b63150b7a0260e01b7bffffffffffffffffffffffffffffffffffffffffffffffffffffffff1916817bffffffffffffffffffffffffffffffffffffffffffffffffffffffff191614915050612986565b600190505b949350505050565b6129988383612a0c565b6129a560008484846127f7565b6129e4576040517f08c379a00000000000000000000000000000000000000000000000000000000081526004016129db90613954565b60405180910390fd5b505050565b6000808273ffffffffffffffffffffffffffffffffffffffff163b119050919050565b600073ffffffffffffffffffffffffffffffffffffffff168273ffffffffffffffffffffffffffffffffffffffff161415612a7c576040517f08c379a0000000000000000000000000000000000000000000000000000000008152600401612a7390613a74565b60405180910390fd5b612a8581611cb1565b15612ac5576040517f08c379a0000000000000000000000000000000000000000000000000000000008152600401612abc90613994565b60405180910390fd5b612ad1600083836127ed565b6001600360008473ffffffffffffffffffffffffffffffffffffffff1673ffffffffffffffffffffffffffffffffffffffff1681526020019081526020016000206000828254612b219190613ce5565b92505081905550816002600083815260200190815260200160002060006101000a81548173ffffffffffffffffffffffffffffffffffffffff021916908373ffffffffffffffffffffffffffffffffffffffff160217905550808273ffffffffffffffffffffffffffffffffffffffff16600073ffffffffffffffffffffffffffffffffffffffff167fddf252ad1be2c89b69c2b068fc378daa952ba7f163c4a11628f55a4df523b3ef60405160405180910390a4612be2600083836127f2565b5050565b6040518060a0016040528060608152602001606081526020016000815260200160008152602001600081525090565b6040518060c001604052806000815260200160608152602001606081526020016000815260200160008152602001600081525090565b828054612c5790613eb0565b90600052602060002090601f016020900481019282612c795760008555612cc0565b82601f10612c9257805160ff1916838001178555612cc0565b82800160010185558215612cc0579182015b82811115612cbf578251825591602001919060010190612ca4565b5b509050612ccd9190612cd1565b5090565b5b80821115612cea576000816000905550600101612cd2565b5090565b6000612d01612cfc84613c27565b613c02565b905082815260208101848484011115612d1957600080fd5b612d24848285613e6e565b509392505050565b600081359050612d3b81614643565b92915050565b600081359050612d508161465a565b92915050565b600081359050612d6581614671565b92915050565b600081519050612d7a81614671565b92915050565b600082601f830112612d9157600080fd5b8135612da1848260208601612cee565b91505092915050565b600081359050612db981614688565b92915050565b600060208284031215612dd157600080fd5b6000612ddf84828501612d2c565b91505092915050565b60008060408385031215612dfb57600080fd5b6000612e0985828601612d2c565b9250506020612e1a85828601612d2c565b9150509250929050565b600080600060608486031215612e3957600080fd5b6000612e4786828701612d2c565b9350506020612e5886828701612d2c565b9250506040612e6986828701612daa565b9150509250925092565b60008060008060808587031215612e8957600080fd5b6000612e9787828801612d2c565b9450506020612ea887828801612d2c565b9350506040612eb987828801612daa565b925050606085013567ffffffffffffffff811115612ed657600080fd5b612ee287828801612d80565b91505092959194509250565b60008060408385031215612f0157600080fd5b6000612f0f85828601612d2c565b9250506020612f2085828601612d41565b9150509250929050565b60008060408385031215612f3d57600080fd5b6000612f4b85828601612d2c565b9250506020612f5c85828601612daa565b9150509250929050565b600060208284031215612f7857600080fd5b6000612f8684828501612d56565b91505092915050565b600060208284031215612fa157600080fd5b6000612faf84828501612d6b565b91505092915050565b600060208284031215612fca57600080fd5b6000612fd884828501612daa565b91505092915050565b6000612fed8383613506565b905092915050565b612ffe81613dfa565b82525050565b600061300f82613c68565b6130198185613c96565b93508360208202850161302b85613c58565b8060005b8581101561306757848403895281516130488582612fe1565b945061305383613c89565b925060208a0199505060018101905061302f565b50829750879550505050505092915050565b61308281613e0c565b82525050565b600061309382613c73565b61309d8185613ca7565b93506130ad818560208601613e7d565b6130b681614049565b840191505092915050565b60006130cc82613c7e565b6130d68185613cb8565b93506130e6818560208601613e7d565b6130ef81614049565b840191505092915050565b600061310582613c7e565b61310f8185613cc9565b935061311f818560208601613e7d565b61312881614049565b840191505092915050565b600061313e82613c7e565b6131488185613cda565b9350613158818560208601613e7d565b80840191505092915050565b6000613171600b83613cda565b915061317c8261405a565b600b82019050919050565b6000613194603283613cc9565b915061319f82614083565b604082019050919050565b60006131b7602583613cc9565b91506131c2826140d2565b604082019050919050565b60006131da601c83613cc9565b91506131e582614121565b602082019050919050565b60006131fd600e83613cda565b91506132088261414a565b600e82019050919050565b6000613220602483613cc9565b915061322b82614173565b604082019050919050565b6000613243601983613cc9565b915061324e826141c2565b602082019050919050565b6000613266602c83613cc9565b9150613271826141eb565b604082019050919050565b6000613289603883613cc9565b91506132948261423a565b604082019050919050565b60006132ac602a83613cc9565b91506132b782614289565b604082019050919050565b60006132cf602983613cc9565b91506132da826142d8565b604082019050919050565b60006132f2606283613cda565b91506132fd82614327565b606282019050919050565b6000613315600483613cda565b9150613320826143c2565b600482019050919050565b6000613338602083613cc9565b9150613343826143eb565b602082019050919050565b600061335b602c83613cc9565b915061336682614414565b604082019050919050565b600061337e600a83613cda565b915061338982614463565b600a82019050919050565b60006133a1602183613cc9565b91506133ac8261448c565b604082019050919050565b60006133c4601683613cc9565b91506133cf826144db565b602082019050919050565b60006133e7601d83613cda565b91506133f282614504565b601d82019050919050565b600061340a603183613cc9565b91506134158261452d565b604082019050919050565b600061342d601b83613cc9565b91506134388261457c565b602082019050919050565b6000613450603d83613cda565b915061345b826145a5565b603d82019050919050565b6000613473602d83613cda565b915061347e826145f4565b602d82019050919050565b600060a08301600083015184820360008601526134a682826130c1565b915050602083015184820360208601526134c082826130c1565b91505060408301516134d56040860182613626565b5060608301516134e86060860182613626565b5060808301516134fb6080860182613626565b508091505092915050565b600060c08301600083015161351e6000860182613626565b506020830151848203602086015261353682826130c1565b9150506040830151848203604086015261355082826130c1565b91505060608301516135656060860182613626565b5060808301516135786080860182613626565b5060a083015161358b60a0860182613626565b508091505092915050565b600060c0830160008301516135ae6000860182613626565b50602083015184820360208601526135c682826130c1565b915050604083015184820360408601526135e082826130c1565b91505060608301516135f56060860182613626565b5060808301516136086080860182613626565b5060a083015161361b60a0860182613626565b508091505092915050565b61362f81613e64565b82525050565b61363e81613e64565b82525050565b600061364f82613371565b915061365b8289613133565b915061366682613164565b91506136728288613133565b915061367d826132e5565b91506136898287613133565b915061369482613443565b91506136a08286613133565b91506136ab826131f0565b91506136b78285613133565b91506136c282613466565b91506136ce8284613133565b91506136d982613308565b9150819050979650505050505050565b60006136f4826133da565b91506137008284613133565b915081905092915050565b60006020820190506137206000830184612ff5565b92915050565b600060808201905061373b6000830187612ff5565b6137486020830186612ff5565b6137556040830185613635565b81810360608301526137678184613088565b905095945050505050565b60006060820190506137876000830186612ff5565b6137946020830185613635565b6137a16040830184613635565b949350505050565b600060208201905081810360008301526137c38184613004565b905092915050565b60006020820190506137e06000830184613079565b92915050565b6000602082019050818103600083015261380081846130fa565b905092915050565b6000608082019050818103600083015261382281876130fa565b9050818103602083015261383681866130fa565b90506138456040830185613635565b818103606083015261385781846130fa565b905095945050505050565b6000608082019050818103600083015261387c81876130fa565b9050818103602083015261389081866130fa565b905061389f6040830185613635565b6138ac6060830184613635565b95945050505050565b600060a08201905081810360008301526138cf81886130fa565b905081810360208301526138e381876130fa565b90506138f26040830186613635565b6138ff6060830185613635565b61390c6080830184613635565b9695505050505050565b6000606082019050818103600083015261393081866130fa565b905061393f6020830185613635565b61394c6040830184613635565b949350505050565b6000602082019050818103600083015261396d81613187565b9050919050565b6000602082019050818103600083015261398d816131aa565b9050919050565b600060208201905081810360008301526139ad816131cd565b9050919050565b600060208201905081810360008301526139cd81613213565b9050919050565b600060208201905081810360008301526139ed81613236565b9050919050565b60006020820190508181036000830152613a0d81613259565b9050919050565b60006020820190508181036000830152613a2d8161327c565b9050919050565b60006020820190508181036000830152613a4d8161329f565b9050919050565b60006020820190508181036000830152613a6d816132c2565b9050919050565b60006020820190508181036000830152613a8d8161332b565b9050919050565b60006020820190508181036000830152613aad8161334e565b9050919050565b60006020820190508181036000830152613acd81613394565b9050919050565b60006020820190508181036000830152613aed816133b7565b9050919050565b60006020820190508181036000830152613b0d816133fd565b9050919050565b60006020820190508181036000830152613b2d81613420565b9050919050565b60006020820190508181036000830152613b4e8184613489565b905092915050565b60006020820190508181036000830152613b708184613596565b905092915050565b6000602082019050613b8d6000830184613635565b92915050565b600060c082019050613ba86000830189613635565b8181036020830152613bba81886130fa565b90508181036040830152613bce81876130fa565b9050613bdd6060830186613635565b613bea6080830185613635565b613bf760a0830184613635565b979650505050505050565b6000613c0c613c1d565b9050613c188282613ee2565b919050565b6000604051905090565b600067ffffffffffffffff821115613c4257613c4161401a565b5b613c4b82614049565b9050602081019050919050565b6000819050602082019050919050565b600081519050919050565b600081519050919050565b600081519050919050565b6000602082019050919050565b600082825260208201905092915050565b600082825260208201905092915050565b600082825260208201905092915050565b600082825260208201905092915050565b600081905092915050565b6000613cf082613e64565b9150613cfb83613e64565b9250827fffffffffffffffffffffffffffffffffffffffffffffffffffffffffffffffff03821115613d3057613d2f613f8d565b5b828201905092915050565b6000613d4682613e64565b9150613d5183613e64565b925082613d6157613d60613fbc565b5b828204905092915050565b6000613d7782613e64565b9150613d8283613e64565b9250817fffffffffffffffffffffffffffffffffffffffffffffffffffffffffffffffff0483118215151615613dbb57613dba613f8d565b5b828202905092915050565b6000613dd182613e64565b9150613ddc83613e64565b925082821015613def57613dee613f8d565b5b828203905092915050565b6000613e0582613e44565b9050919050565b60008115159050919050565b60007fffffffff0000000000000000000000000000000000000000000000000000000082169050919050565b600073ffffffffffffffffffffffffffffffffffffffff82169050919050565b6000819050919050565b82818337600083830152505050565b60005b83811015613e9b578082015181840152602081019050613e80565b83811115613eaa576000848401525b50505050565b60006002820490506001821680613ec857607f821691505b60208210811415613edc57613edb613feb565b5b50919050565b613eeb82614049565b810181811067ffffffffffffffff82111715613f0a57613f0961401a565b5b80604052505050565b6000613f1e82613e64565b91507fffffffffffffffffffffffffffffffffffffffffffffffffffffffffffffffff821415613f5157613f50613f8d565b5b600182019050919050565b6000613f6782613e64565b9150613f7283613e64565b925082613f8257613f81613fbc565b5b828206905092915050565b7f4e487b7100000000000000000000000000000000000000000000000000000000600052601160045260246000fd5b7f4e487b7100000000000000000000000000000000000000000000000000000000600052601260045260246000fd5b7f4e487b7100000000000000000000000000000000000000000000000000000000600052602260045260246000fd5b7f4e487b7100000000000000000000000000000000000000000000000000000000600052604160045260246000fd5b6000601f19601f8301169050919050565b7f202d2d204e465420233a20000000000000000000000000000000000000000000600082015250565b7f4552433732313a207472616e7366657220746f206e6f6e20455243373231526560008201527f63656976657220696d706c656d656e7465720000000000000000000000000000602082015250565b7f4552433732313a207472616e736665722066726f6d20696e636f72726563742060008201527f6f776e6572000000000000000000000000000000000000000000000000000000602082015250565b7f4552433732313a20746f6b656e20616c7265616479206d696e74656400000000600082015250565b7f2c20226d61785f76616c7565223a000000000000000000000000000000000000600082015250565b7f4552433732313a207472616e7366657220746f20746865207a65726f2061646460008201527f7265737300000000000000000000000000000000000000000000000000000000602082015250565b7f4552433732313a20617070726f766520746f2063616c6c657200000000000000600082015250565b7f4552433732313a206f70657261746f7220717565727920666f72206e6f6e657860008201527f697374656e7420746f6b656e0000000000000000000000000000000000000000602082015250565b7f4552433732313a20617070726f76652063616c6c6572206973206e6f74206f7760008201527f6e6572206e6f7220617070726f76656420666f7220616c6c0000000000000000602082015250565b7f4552433732313a2062616c616e636520717565727920666f7220746865207a6560008201527f726f206164647265737300000000000000000000000000000000000000000000602082015250565b7f4552433732313a206f776e657220717565727920666f72206e6f6e657869737460008201527f656e7420746f6b656e0000000000000000000000000000000000000000000000602082015250565b7f222c20226465736372697074696f6e223a20225468697320697320616e204e4660008201527f542074686174206c6574732070656f706c6520706c617920696e20746865206760208201527f616d65204d657461766572736520536c6179657221222c2022696d616765223a60408201527f2022000000000000000000000000000000000000000000000000000000000000606082015250565b7f7d205d7d00000000000000000000000000000000000000000000000000000000600082015250565b7f4552433732313a206d696e7420746f20746865207a65726f2061646472657373600082015250565b7f4552433732313a20617070726f76656420717565727920666f72206e6f6e657860008201527f697374656e7420746f6b656e0000000000000000000000000000000000000000602082015250565b7f7b226e616d65223a202200000000000000000000000000000000000000000000600082015250565b7f4552433732313a20617070726f76616c20746f2063757272656e74206f776e6560008201527f7200000000000000000000000000000000000000000000000000000000000000602082015250565b7f4572726f723a20626f737320686173206e6f2048502e00000000000000000000600082015250565b7f646174613a6170706c69636174696f6e2f6a736f6e3b6261736536342c000000600082015250565b7f4552433732313a207472616e736665722063616c6c6572206973206e6f74206f60008201527f776e6572206e6f7220617070726f766564000000000000000000000000000000602082015250565b7f4572726f723a2063686172616374657220686173206e6f2048502e0000000000600082015250565b7f222c202261747472696275746573223a205b207b202274726169745f7479706560008201527f223a20224865616c746820506f696e7473222c202276616c7565223a20000000602082015250565b7f7d2c207b202274726169745f74797065223a202241747461636b2044616d616760008201527f65222c202276616c7565223a2000000000000000000000000000000000000000602082015250565b61464c81613dfa565b811461465757600080fd5b50565b61466381613e0c565b811461466e57600080fd5b50565b61467a81613e18565b811461468557600080fd5b50565b61469181613e64565b811461469c57600080fd5b5056fe4142434445464748494a4b4c4d4e4f505152535455565758595a6162636465666768696a6b6c6d6e6f707172737475767778797a303132333435363738392b2f4d696e746564204e465420772f20746f6b656e496420257320616e6420636861726163746572496e6465782025730a506c6179657220772f206368617261637465722025732061626f757420746f2061747461636b2e2048617320257320485020616e64202573204144a264697066735822122077fc63e5d244cfae3594161d68ce56e4d9570730e61e665a0438df3a140684a564736f6c63430008010033446f6e6520696e697469616c697a696e6720257320772f2048502025732c20696d67202573446f6e6520696e697469616c697a696e6720626f737320257320772f2048502025732c20696d67202573",
  "linkReferences": {},
  "deployedLinkReferences": {}
}